:100000000C9431000C9443000C9443000C94430076
:100010000C9443000C9443000C9443000C94430054
:100020000C9443000C9443000C9443000C94430044
:100030000C9443000C94B3030C9443000C944300C1
:100040000C9443000C9443000C9443000C94430024
:100050000C9443005E00620066006A006E0072004D
:10006000760011241FBECFE5D8E0DEBFCDBF20E073
:10007000A0E6B0E001C01D92A436B207E1F70E94ED
:100080006F030C94FE050C940000813039F018F0D9
:10009000833039F008C03E983E9805C03E9A3F989C
:1000A00002C03F9A3F9A862F90E0FC013197E730DB
:1000B000F105F8F4E65DFF4F0C940605309A31988F
:1000C000329817C03098319A329813C0309A319ACA
:1000D00032980FC030983198329A0BC0309A3198CC
:1000E000329A07C03098319A329A03C0309A319AC6
:1000F000329A3D98379A089526B12F7B30E4839F3A
:10010000C0011124822B86B9089597B1907E97B9CA
:1001100097B1892B87B981E00E947C003699FECF88
:1001200084B195B10895982F969596959695877078
:10013000613009F490C018F06230E9F1089591300F
:1001400099F028F0923051F19330D9F008954AB3E4
:1001500021E030E0B90102C0660F771F8A95E2F70F
:10016000CB01842B8ABB089547B321E030E0B9016D
:1001700002C0660F771F8A95E2F7CB01842B87BBFD
:10018000089541B321E030E0B90102C0660F771F46
:100190008A95E2F7CB01842B81BB089544B321E01B
:1001A00030E0B90102C0660F771F8A95E2F7CB01F4
:1001B000842B84BB08959130C1F028F09230C9F1AE
:1001C000933029F108954AB321E030E0B90102C02B
:1001D000660F771F8A95E2F7CB01962F90959423AF
:1001E0009ABB9BB3892B8BBB089547B321E030E0CA
:1001F000B90102C0660F771F8A95E2F7CB01962FEF
:100200009095942397BB98B3892B88BB089541B3ED
:1002100021E030E0B90102C0660F771F8A95E2F74E
:10022000CB01962F9095942391BB92B3892B82BBDF
:10023000089544B321E030E0B90102C0660F771F92
:100240008A95E2F7CB01962F9095942394BB95B3B2
:10025000892B85BB08959130C1F028F09230C9F107
:10026000933029F108954AB321E030E0B90102C08A
:10027000660F771F8A95E2F7CB018095942F98231C
:100280009ABB9BB389238BBB089547B321E030E031
:10029000B90102C0660F771F8A95E2F7CB018095FE
:1002A000942F982397BB98B3892388BB089541B3B3
:1002B00021E030E0B90102C0660F771F8A95E2F7AE
:1002C000CB018095942F982391BB92B3892382BB55
:1002D000089544B321E030E0B90102C0660F771FF2
:1002E0008A95E2F7CB018095942F982394BB95B320
:1002F000892385BB0895982F977086958695869556
:100300008130C9F028F08230E1F1833039F108956D
:100310002BB341E050E0092E02C0440F551F0A9450
:10032000E2F7842F8095822301C0660F9A95EAF741
:10033000682B6BBB089528B341E050E0092E02C042
:10034000440F551F0A94E2F7842F8095822301C041
:10035000660F9A95EAF7682B68BB089522B341E0CF
:1003600050E0092E02C0440F551F0A94E2F7842F73
:100370008095822301C0660F9A95EAF7682B62BBCD
:10038000089525B341E050E0092E02C0440F551FE7
:100390000A94E2F7842F8095822301C0660F9A9514
:1003A000EAF7682B65BB0895813041F028F0823070
:1003B00039F0833039F008956ABB089567BB08951A
:1003C00064BB089561BB0895813041F028F082300C
:1003D00039F0833039F008956BBB089568BB0895F8
:1003E00065BB089562BB08950E9490020E9490032D
:1003F00082E00E94A00366E081E00E9445002FE9B0
:1004000086E891E0215080409040E1F700C0000074
:1004100081E00E947C000895CF93DF930E947803CF
:100420009C01369527953695279536952795A5EC09
:10043000B0E20E940C05EC01D295C295CF70CD2799
:10044000DF70CD278C2F0E94AF0360E080E00E9418
:1004500061032C2F30E040E050E060E070E080E08D
:1004600090E00E94B8022FE382E49FE02150804098
:100470009040E1F700C00000DF91CF91089561E066
:100480008AE10E947B018FEC97E00197F1F700C0B1
:10049000000060E08AE10E947B018FE99FE0019704
:1004A000F1F700C000000895CF93C82F60E08BE102
:1004B0000E947B016C2F607F81E00E94E4010E941A
:1004C0003F0280E1C89FB001112481E00E94E40155
:1004D0000E943F028FE99FE00197F1F700C0000002
:1004E000CF910895CF93C82F61E08BE10E947B01EB
:1004F0006C2F607F81E00E94E4010E943F0280E156
:10050000C89FB001112481E00E94E4010E943F02D3
:100510008FE99FE00197F1F700C00000CF910895A7
:1005200060E08AE10E94930060E08BE10E9493000A
:100530002FE788E391E0215080409040E1F700C030
:10054000000060EF81E00E94D40182E00E9454022A
:1005500082E00E94540288E20E94540286E00E94D7
:1005600054028CE00E94540281E00E9454020895DB
:100570002F923F924F925F926F927F928F929F92B3
:10058000AF92BF92CF92DF92EF92FF920F931F93A1
:10059000CF93DF93CDB7DEB763970FB6F894DEBF86
:1005A0000FBECDBF298B3A8B4B8B852E762E672EB7
:1005B000382E292EA0E00E94F20521F480E30E944B
:1005C000720263C029893A894B89A0E00E94F20532
:1005D000D4F48DE20E94720229893A894B89582D00
:1005E000672D762D832D922D0E94AB05298B3A8B9A
:1005F0004B8B852E762E672E382E292EA0E00E945A
:10060000F20509F442C0912C44244394512C4C0E21
:100610005D1E490C511C0F2EFAE0AF2EF02DB12CAF
:10062000C12CD12CE12CF12C00E010E029893A8971
:100630004B89582D672D762D832D922D0E941B05F9
:10064000F201208329893A894B89582D672D762D0F
:10065000832D922D0E941D05298B3A8B4B8B852E65
:10066000762E672E382E292E9394A0E00E94F20554
:1006700059F6992051F0FE01E90DF11D8081805D50
:100680000E9472029A949110F6CF89810E947202A0
:1006900063960FB6F894DEBF0FBECDBFDF91CF914A
:1006A0001F910F91FF90EF90DF90CF90BF90AF9090
:1006B0009F908F907F906F905F904F903F902F9082
:1006C0000895811105C0862F80680E945402089504
:1006D000813021F4862F806C0E945402089561E0DD
:1006E00081E00E9493000E94F4010E940C02FDCF61
:1006F00081E00E948500BC0180E090E00E940B0434
:1007000020E030E44CE955E40E94990420E030E018
:1007100040E85AE30E9499040E94DC03CB0108954B
:1007200083E389B980B5826080BD80B5846080BD77
:100730005298E0E6F0E0118210821382128208954E
:10074000813039F018F0823039F00895549A539876
:1007500008955498539A0895539A549A08955D9B16
:10076000FECF8CB908951F920F920FB60F921124ED
:100770002F933F934F935F936F937F938F939F93A9
:10078000AF93BF93EF93FF93E0916000F09161000E
:10079000309709F00995FF91EF91BF91AF919F912B
:1007A0008F917F916F915F914F913F912F910F901A
:1007B0000FBE0F901F9018950E94780488F09F57E5
:1007C00098F0B92F9927B751B0F0E1F0660F771F75
:1007D000881F991F1AF0BA95C9F714C0B13091F06B
:1007E0000E949204B1E008950C949204672F782F30
:1007F0008827B85F39F0B93FCCF386957795679530
:10080000B395D9F73EF490958095709561957F4F9B
:100810008F4F9F4F0895E89409C097FB3EF4909541
:100820008095709561957F4F8F4F9F4F9923A9F0C9
:10083000F92F96E9BB279395F69587957795679558
:10084000B795F111F8CFFAF4BB0F11F460FF1BC09C
:100850006F5F7F4F8F4F9F4F16C0882311F096E92F
:1008600011C0772321F09EE8872F762F05C06623DD
:1008700071F096E8862F70E060E02AF09A95660F96
:10088000771F881FDAF7880F9695879597F908954F
:1008900097F99F6780E870E060E008959FEF80EC33
:1008A000089500240A9416161706180609060895D6
:1008B00000240A9412161306140605060895092E3C
:1008C0000394000C11F4882352F0BB0F40F4BF2BAB
:1008D00011F460FF04C06F5F7F4F8F4F9F4F0895EB
:1008E00057FD9058440F551F59F05F3F71F04795E1
:1008F000880F97FB991F61F09F3F79F087950895C6
:10090000121613061406551FF2CF4695F1DF08C0E4
:10091000161617061806991FF1CF86957105610501
:1009200008940895E894BB2766277727CB0197F9A9
:1009300008950E94AC040C945F040E94510438F0A6
:100940000E94580420F0952311F00C9448040C9454
:100950004E0411240C9493040E94700470F3959F2C
:10096000C1F3950F50E0551F629FF001729FBB27A6
:10097000F00DB11D639FAA27F00DB11DAA1F649F42
:100980006627B00DA11D661F829F2227B00DA11DF5
:10099000621F739FB00DA11D621F839FA00D611D7B
:1009A000221F749F3327A00D611D231F849F600D9C
:1009B000211D822F762F6A2F11249F5750409AF0C5
:1009C000F1F088234AF0EE0FFF1FBB1F661F771F51
:1009D000881F91505040A9F79E3F510580F00C941C
:1009E00048040C9493045F3FE4F3983ED4F3869557
:1009F00077956795B795F795E7959F5FC1F7FE2BBC
:100A0000880F911D9695879597F90895EE0FFF1F12
:100A10000590F491E02D0994A29FB001B39FC0010D
:100A2000A39F700D811D1124911DB29F700D811D1A
:100A30001124911D0895689401C0E894F92FF12BB9
:100A400012F00C944F05A0E0B0E0E9E2F5E00C9460
:100A5000C105092E059422F40E94AB05112392F4DE
:100A6000F0E80F26FFEFE094F09400951095B09415
:100A7000C094D094A194BF0ACF0ADF0AEF0AFF0AFC
:100A80000F0B1F0B0E945A0507FC0E94AB05CDB748
:100A9000DEB7ECE00C94DD05689401C0E8948F9219
:100AA0009F92CF93DF930E945A05DF91CF919F9041
:100AB0008F90089588249924F401E401B0E49F9371
:100AC000AA279A158B049C04ED05FE05CF05D007D7
:100AD000A10798F4AD2FDC2FCF2FFE2FE92D982CF6
:100AE000892E982F872F762F652F542F432F322F43
:100AF0002227B85031F7BF9127C01B2EBF91BB27CB
:100B0000220F331F441F551F661F771F881F991F11
:100B1000881C991CEE1FFF1FCC1FDD1FAA1FBB1FC7
:100B20008A149B04EC05FD05CE05DF05A007B1077F
:100B300048F08A189B08EC09FD09CE09DF09A00BD3
:100B4000B10B21601A94E1F62EF49401AF01BE01BD
:100B5000CD01000C08956095709580959095309525
:100B60004095509521953F4F4F4F5F4F6F4F7F4FAF
:100B70008F4F9F4F08952F923F924F925F926F92A7
:100B80007F928F929F92AF92BF92CF92DF92EF921D
:100B9000FF920F931F93CF93DF93CDB7DEB7CA1B9E
:100BA000DB0B0FB6F894DEBF0FBECDBF09942A88C9
:100BB000398848885F846E847D848C849B84AA8471
:100BC000B984C884DF80EE80FD800C811B81AA81FE
:100BD000B981CE0FD11D0FB6F894DEBF0FBECDBFC9
:100BE000ED0108950024A7FD00942A173005400563
:100BF000500560057005800590050895F894FFCFB5
:00000001FF
